{
  "_format": "hh-sol-artifact-1",
  "contractName": "CrowdFund",
  "sourceName": "Contracts/CrowdFund.sol",
  "abi": [
    {
      "inputs": [
        {
          "internalType": "string",
          "name": "N",
          "type": "string"
        },
        {
          "internalType": "string",
          "name": "I",
          "type": "string"
        },
        {
          "internalType": "uint256",
          "name": "A",
          "type": "uint256"
        }
      ],
      "name": "CreateAccount",
      "outputs": [],
      "stateMutability": "nonpayable",
      "type": "function"
    },
    {
      "inputs": [
        {
          "internalType": "string",
          "name": "_Name",
          "type": "string"
        },
        {
          "internalType": "string",
          "name": "_Desc",
          "type": "string"
        },
        {
          "internalType": "string",
          "name": "_Image",
          "type": "string"
        },
        {
          "internalType": "uint256",
          "name": "_TargetAmount",
          "type": "uint256"
        }
      ],
      "name": "CreateCompaign",
      "outputs": [],
      "stateMutability": "nonpayable",
      "type": "function"
    },
    {
      "inputs": [
        {
          "internalType": "uint256",
          "name": "CmpID",
          "type": "uint256"
        }
      ],
      "name": "Donate",
      "outputs": [],
      "stateMutability": "payable",
      "type": "function"
    },
    {
      "inputs": [
        {
          "internalType": "uint256",
          "name": "",
          "type": "uint256"
        }
      ],
      "name": "DonorList",
      "outputs": [
        {
          "internalType": "address",
          "name": "",
          "type": "address"
        }
      ],
      "stateMutability": "view",
      "type": "function"
    },
    {
      "inputs": [
        {
          "internalType": "uint256",
          "name": "",
          "type": "uint256"
        },
        {
          "internalType": "address",
          "name": "",
          "type": "address"
        }
      ],
      "name": "Donors",
      "outputs": [
        {
          "internalType": "uint256",
          "name": "",
          "type": "uint256"
        }
      ],
      "stateMutability": "view",
      "type": "function"
    },
    {
      "inputs": [
        {
          "internalType": "uint256",
          "name": "ID",
          "type": "uint256"
        }
      ],
      "name": "EndCompaign",
      "outputs": [],
      "stateMutability": "nonpayable",
      "type": "function"
    },
    {
      "inputs": [],
      "name": "GetAccount",
      "outputs": [
        {
          "components": [
            {
              "internalType": "string",
              "name": "Name",
              "type": "string"
            },
            {
              "internalType": "address",
              "name": "Address",
              "type": "address"
            },
            {
              "internalType": "string",
              "name": "Image",
              "type": "string"
            },
            {
              "internalType": "uint256",
              "name": "Age",
              "type": "uint256"
            }
          ],
          "internalType": "struct CrowdFund.Account",
          "name": "",
          "type": "tuple"
        }
      ],
      "stateMutability": "view",
      "type": "function"
    },
    {
      "inputs": [
        {
          "internalType": "uint256",
          "name": "ID",
          "type": "uint256"
        }
      ],
      "name": "GetDonors",
      "outputs": [
        {
          "internalType": "address[]",
          "name": "",
          "type": "address[]"
        }
      ],
      "stateMutability": "view",
      "type": "function"
    },
    {
      "inputs": [],
      "name": "GetUserCompaigns",
      "outputs": [
        {
          "components": [
            {
              "internalType": "string",
              "name": "Name",
              "type": "string"
            },
            {
              "internalType": "string",
              "name": "Desc",
              "type": "string"
            },
            {
              "internalType": "string",
              "name": "Image",
              "type": "string"
            },
            {
              "internalType": "uint256",
              "name": "TargetAmount",
              "type": "uint256"
            },
            {
              "internalType": "uint256",
              "name": "TotalAmount",
              "type": "uint256"
            },
            {
              "internalType": "address payable",
              "name": "Owner",
              "type": "address"
            },
            {
              "internalType": "bool",
              "name": "Status",
              "type": "bool"
            },
            {
              "internalType": "uint256",
              "name": "DonorCount",
              "type": "uint256"
            }
          ],
          "internalType": "struct CrowdFund.Compaign[]",
          "name": "",
          "type": "tuple[]"
        }
      ],
      "stateMutability": "view",
      "type": "function"
    }
  ],
  "bytecode": "0x608060405234801561001057600080fd5b50611375806100206000396000f3fe6080604052600436106100865760003560e01c80634b833a47116100595780634b833a471461013e578063beddf36e14610176578063c56c4e3914610196578063c6f22e08146101b6578063fec062ff146101d657600080fd5b806310f01d181461008b57806324d95990146100b6578063271337ec146100e357806333ac262714610129575b600080fd5b34801561009757600080fd5b506100a06101f8565b6040516100ad9190610dce565b60405180910390f35b3480156100c257600080fd5b506100d66100d1366004610e34565b6103f6565b6040516100ad9190610e4d565b3480156100ef57600080fd5b5061011b6100fe366004610e9a565b600260209081526000928352604080842090915290825290205481565b6040519081526020016100ad565b61013c610137366004610e34565b61057f565b005b34801561014a57600080fd5b5061015e610159366004610e34565b610689565b6040516001600160a01b0390911681526020016100ad565b34801561018257600080fd5b5061013c610191366004610f79565b6106b3565b3480156101a257600080fd5b5061013c6101b1366004610e34565b6107f0565b3480156101c257600080fd5b5061013c6101d1366004611009565b6108c5565b3480156101e257600080fd5b506101eb6109b9565b6040516100ad9190611076565b61022c60405180608001604052806060815260200160006001600160a01b0316815260200160608152602001600081525090565b336000818152602081905260409020600101546001600160a01b0316146102935760405162461bcd60e51b81526020600482015260166024820152751058d8dbdd5b9d08111bd95cc8139bdd08115e1a5cdd60521b60448201526064015b60405180910390fd5b33600090815260208190526040908190208151608081019092528054829082906102bc90611155565b80601f01602080910402602001604051908101604052809291908181526020018280546102e890611155565b80156103355780601f1061030a57610100808354040283529160200191610335565b820191906000526020600020905b81548152906001019060200180831161031857829003601f168201915b505050918352505060018201546001600160a01b0316602082015260028201805460409092019161036590611155565b80601f016020809104026020016040519081016040528092919081815260200182805461039190611155565b80156103de5780601f106103b3576101008083540402835291602001916103de565b820191906000526020600020905b8154815290600101906020018083116103c157829003601f168201915b50505050508152602001600382015481525050905090565b606060006001838154811061040d5761040d61118f565b90600052602060002090600702016006015467ffffffffffffffff81111561043757610437610ed6565b604051908082528060200260200182016040528015610460578160200160208202803683370190505b50905060005b600184815481106104795761047961118f565b9060005260206000209060070201600601548110156105785760005b60035481101561056557600085815260026020526040812060038054839190859081106104c4576104c461118f565b60009182526020808320909101546001600160a01b03168352820192909252604001902054111561055357600381815481106105025761050261118f565b9060005260206000200160009054906101000a90046001600160a01b03168383815181106105325761053261118f565b60200260200101906001600160a01b031690816001600160a01b0316815250505b8061055d816111bb565b915050610495565b5080610570816111bb565b915050610466565b5092915050565b336105886101f8565b602001516001600160a01b0316146105b25760405162461bcd60e51b815260040161028a906111d4565b60008181526002602090815260408083203384529091529020349081905560018054839081106105e4576105e461118f565b906000526020600020906007020160040160008282546106049190611217565b92505081905550600180828154811061061f5761061f61118f565b9060005260206000209060070201600601600082825461063f9190611217565b9091555050600380546001810182556000919091527fc2575a0e9e593c00f959f8c92f12db2869c3395a3b0502d05e2516446f71f85b0180546001600160a01b0319163317905550565b6003818154811061069957600080fd5b6000918252602090912001546001600160a01b0316905081565b336106bc6101f8565b602001516001600160a01b0316146106e65760405162461bcd60e51b815260040161028a906111d4565b604080516101008101825285815260208101859052908101839052606081018290526000608082018190523360a0830152600160c0830181905260e08301829052805480820182559152815160079091027fb10e2d527612073b26eecdfd717e6a320cf44b4afac2b0732d9fcbe2b7fa0cf601908190610766908261127f565b506020820151600182019061077b908261127f565b5060408201516002820190610790908261127f565b50606082015160038201556080820151600482015560a082015160058201805460c08501511515600160a01b026001600160a81b03199091166001600160a01b039093169290921791909117905560e09091015160069091015550505050565b600181815481106108035761080361118f565b906000526020600020906007020160050160009054906101000a90046001600160a01b03166001600160a01b03166108fc600183815481106108475761084761118f565b9060005260206000209060070201600401549081150290604051600060405180830381858888f19350505050158015610884573d6000803e3d6000fd5b5060006001828154811061089a5761089a61118f565b906000526020600020906007020160050160146101000a81548160ff02191690831515021790555050565b336000818152602081905260409020600101546001600160a01b03160361092e5760405162461bcd60e51b815260206004820152601760248201527f4163636f756e7420416c72656164792045786973746564000000000000000000604482015260640161028a565b60408051608081018252848152336020808301829052828401869052606083018590526000918252819052919091208151819061096b908261127f565b5060208201516001820180546001600160a01b0319166001600160a01b03909216919091179055604082015160028201906109a6908261127f565b5060608201518160030155905050505050565b60606000805b600154811015610a2857336001600160a01b0316600182815481106109e6576109e661118f565b60009182526020909120600560079092020101546001600160a01b031603610a165781610a12816111bb565b9250505b80610a20816111bb565b9150506109bf565b5060008167ffffffffffffffff811115610a4457610a44610ed6565b604051908082528060200260200182016040528015610ac857816020015b610ab5604051806101000160405280606081526020016060815260200160608152602001600081526020016000815260200160006001600160a01b03168152602001600015158152602001600081525090565b815260200190600190039081610a625790505b5090506000805b600154811015610d7f57336001600160a01b031660018281548110610af657610af661118f565b60009182526020909120600560079092020101546001600160a01b031603610d6d5760018181548110610b2b57610b2b61118f565b906000526020600020906007020160405180610100016040529081600082018054610b5590611155565b80601f0160208091040260200160405190810160405280929190818152602001828054610b8190611155565b8015610bce5780601f10610ba357610100808354040283529160200191610bce565b820191906000526020600020905b815481529060010190602001808311610bb157829003601f168201915b50505050508152602001600182018054610be790611155565b80601f0160208091040260200160405190810160405280929190818152602001828054610c1390611155565b8015610c605780601f10610c3557610100808354040283529160200191610c60565b820191906000526020600020905b815481529060010190602001808311610c4357829003601f168201915b50505050508152602001600282018054610c7990611155565b80601f0160208091040260200160405190810160405280929190818152602001828054610ca590611155565b8015610cf25780601f10610cc757610100808354040283529160200191610cf2565b820191906000526020600020905b815481529060010190602001808311610cd557829003601f168201915b5050509183525050600382015460208201526004820154604082015260058201546001600160a01b0381166060830152600160a01b900460ff161515608082015260069091015460a0909101528351849084908110610d5357610d5361118f565b60200260200101819052508180610d69906111bb565b9250505b80610d77816111bb565b915050610acf565b50909392505050565b6000815180845260005b81811015610dae57602081850181015186830182015201610d92565b506000602082860101526020601f19601f83011685010191505092915050565b602081526000825160806020840152610dea60a0840182610d88565b60208501516001600160a01b0316604085810191909152850151848203601f19016060860152909150610e1d8282610d88565b915050606084015160808401528091505092915050565b600060208284031215610e4657600080fd5b5035919050565b6020808252825182820181905260009190848201906040850190845b81811015610e8e5783516001600160a01b031683529284019291840191600101610e69565b50909695505050505050565b60008060408385031215610ead57600080fd5b8235915060208301356001600160a01b0381168114610ecb57600080fd5b809150509250929050565b634e487b7160e01b600052604160045260246000fd5b600082601f830112610efd57600080fd5b813567ffffffffffffffff80821115610f1857610f18610ed6565b604051601f8301601f19908116603f01168101908282118183101715610f4057610f40610ed6565b81604052838152866020858801011115610f5957600080fd5b836020870160208301376000602085830101528094505050505092915050565b60008060008060808587031215610f8f57600080fd5b843567ffffffffffffffff80821115610fa757600080fd5b610fb388838901610eec565b95506020870135915080821115610fc957600080fd5b610fd588838901610eec565b94506040870135915080821115610feb57600080fd5b50610ff887828801610eec565b949793965093946060013593505050565b60008060006060848603121561101e57600080fd5b833567ffffffffffffffff8082111561103657600080fd5b61104287838801610eec565b9450602086013591508082111561105857600080fd5b5061106586828701610eec565b925050604084013590509250925092565b60006020808301818452808551808352604092508286019150828160051b87010184880160005b8381101561114757603f19898403018552815161010081518186526110c482870182610d88565b915050888201518582038a8701526110dc8282610d88565b91505087820151858203898701526110f48282610d88565b606084810151908801526080808501519088015260a0808501516001600160a01b03169088015260c08085015115159088015260e09384015193909601929092525050938601939086019060010161109d565b509098975050505050505050565b600181811c9082168061116957607f821691505b60208210810361118957634e487b7160e01b600052602260045260246000fd5b50919050565b634e487b7160e01b600052603260045260246000fd5b634e487b7160e01b600052601160045260246000fd5b6000600182016111cd576111cd6111a5565b5060010190565b60208082526023908201527f596f75204e656564204163636f756e7420746f2043726561746520436f6d706160408201526234b3b760e91b606082015260800190565b8082018082111561122a5761122a6111a5565b92915050565b601f82111561127a57600081815260208120601f850160051c810160208610156112575750805b601f850160051c820191505b8181101561127657828155600101611263565b5050505b505050565b815167ffffffffffffffff81111561129957611299610ed6565b6112ad816112a78454611155565b84611230565b602080601f8311600181146112e257600084156112ca5750858301515b600019600386901b1c1916600185901b178555611276565b600085815260208120601f198616915b82811015611311578886015182559484019460019091019084016112f2565b508582101561132f5787850151600019600388901b60f8161c191681555b5050505050600190811b0190555056fea2646970667358221220280532034b5fdd0f806d6176dec8183c65134cff75bc7a3f22c059d860fb781464736f6c63430008110033",
  "linkReferences": {},
  "deployedLinkReferences": {}
}