{
  "_format": "hh-sol-artifact-1",
  "contractName": "CrowdFund",
  "sourceName": "Contracts/CrowdFund.sol",
  "abi": [
    {
      "inputs": [
        {
          "internalType": "uint256",
          "name": "",
          "type": "uint256"
        }
      ],
      "name": "AllCompaigns",
      "outputs": [
        {
          "internalType": "string",
          "name": "Name",
          "type": "string"
        },
        {
          "internalType": "string",
          "name": "Desc",
          "type": "string"
        },
        {
          "internalType": "string",
          "name": "Image",
          "type": "string"
        },
        {
          "internalType": "uint256",
          "name": "TargetAmount",
          "type": "uint256"
        },
        {
          "internalType": "uint256",
          "name": "TotalAmount",
          "type": "uint256"
        },
        {
          "internalType": "address payable",
          "name": "Owner",
          "type": "address"
        },
        {
          "internalType": "bool",
          "name": "Status",
          "type": "bool"
        },
        {
          "internalType": "uint256",
          "name": "DonorCount",
          "type": "uint256"
        }
      ],
      "stateMutability": "view",
      "type": "function"
    },
    {
      "inputs": [
        {
          "internalType": "string",
          "name": "N",
          "type": "string"
        },
        {
          "internalType": "string",
          "name": "I",
          "type": "string"
        },
        {
          "internalType": "uint256",
          "name": "A",
          "type": "uint256"
        }
      ],
      "name": "CreateAccount",
      "outputs": [],
      "stateMutability": "nonpayable",
      "type": "function"
    },
    {
      "inputs": [
        {
          "internalType": "string",
          "name": "_Name",
          "type": "string"
        },
        {
          "internalType": "string",
          "name": "_Desc",
          "type": "string"
        },
        {
          "internalType": "string",
          "name": "_Image",
          "type": "string"
        },
        {
          "internalType": "uint256",
          "name": "_TargetAmount",
          "type": "uint256"
        }
      ],
      "name": "CreateCompaign",
      "outputs": [],
      "stateMutability": "nonpayable",
      "type": "function"
    },
    {
      "inputs": [
        {
          "internalType": "uint256",
          "name": "CmpID",
          "type": "uint256"
        }
      ],
      "name": "Donate",
      "outputs": [],
      "stateMutability": "payable",
      "type": "function"
    },
    {
      "inputs": [
        {
          "internalType": "uint256",
          "name": "",
          "type": "uint256"
        }
      ],
      "name": "DonorList",
      "outputs": [
        {
          "internalType": "address",
          "name": "",
          "type": "address"
        }
      ],
      "stateMutability": "view",
      "type": "function"
    },
    {
      "inputs": [
        {
          "internalType": "uint256",
          "name": "",
          "type": "uint256"
        },
        {
          "internalType": "address",
          "name": "",
          "type": "address"
        }
      ],
      "name": "Donors",
      "outputs": [
        {
          "internalType": "uint256",
          "name": "",
          "type": "uint256"
        }
      ],
      "stateMutability": "view",
      "type": "function"
    },
    {
      "inputs": [
        {
          "internalType": "uint256",
          "name": "ID",
          "type": "uint256"
        }
      ],
      "name": "EndCompaign",
      "outputs": [],
      "stateMutability": "nonpayable",
      "type": "function"
    },
    {
      "inputs": [],
      "name": "GetAccount",
      "outputs": [
        {
          "components": [
            {
              "internalType": "string",
              "name": "Name",
              "type": "string"
            },
            {
              "internalType": "address",
              "name": "Address",
              "type": "address"
            },
            {
              "internalType": "string",
              "name": "Image",
              "type": "string"
            },
            {
              "internalType": "uint256",
              "name": "Age",
              "type": "uint256"
            }
          ],
          "internalType": "struct CrowdFund.Account",
          "name": "",
          "type": "tuple"
        }
      ],
      "stateMutability": "view",
      "type": "function"
    },
    {
      "inputs": [],
      "name": "GetAllCompaigns",
      "outputs": [
        {
          "components": [
            {
              "internalType": "string",
              "name": "Name",
              "type": "string"
            },
            {
              "internalType": "string",
              "name": "Desc",
              "type": "string"
            },
            {
              "internalType": "string",
              "name": "Image",
              "type": "string"
            },
            {
              "internalType": "uint256",
              "name": "TargetAmount",
              "type": "uint256"
            },
            {
              "internalType": "uint256",
              "name": "TotalAmount",
              "type": "uint256"
            },
            {
              "internalType": "address payable",
              "name": "Owner",
              "type": "address"
            },
            {
              "internalType": "bool",
              "name": "Status",
              "type": "bool"
            },
            {
              "internalType": "uint256",
              "name": "DonorCount",
              "type": "uint256"
            }
          ],
          "internalType": "struct CrowdFund.Compaign[]",
          "name": "",
          "type": "tuple[]"
        }
      ],
      "stateMutability": "view",
      "type": "function"
    },
    {
      "inputs": [
        {
          "internalType": "uint256",
          "name": "ID",
          "type": "uint256"
        }
      ],
      "name": "GetDonors",
      "outputs": [
        {
          "internalType": "address[]",
          "name": "",
          "type": "address[]"
        }
      ],
      "stateMutability": "view",
      "type": "function"
    },
    {
      "inputs": [],
      "name": "GetUserCompaigns",
      "outputs": [
        {
          "components": [
            {
              "internalType": "string",
              "name": "Name",
              "type": "string"
            },
            {
              "internalType": "string",
              "name": "Desc",
              "type": "string"
            },
            {
              "internalType": "string",
              "name": "Image",
              "type": "string"
            },
            {
              "internalType": "uint256",
              "name": "TargetAmount",
              "type": "uint256"
            },
            {
              "internalType": "uint256",
              "name": "TotalAmount",
              "type": "uint256"
            },
            {
              "internalType": "address payable",
              "name": "Owner",
              "type": "address"
            },
            {
              "internalType": "bool",
              "name": "Status",
              "type": "bool"
            },
            {
              "internalType": "uint256",
              "name": "DonorCount",
              "type": "uint256"
            }
          ],
          "internalType": "struct CrowdFund.Compaign[]",
          "name": "",
          "type": "tuple[]"
        }
      ],
      "stateMutability": "view",
      "type": "function"
    }
  ],
  "bytecode": "0x608060405234801561001057600080fd5b50611957806100206000396000f3fe60806040526004361061009c5760003560e01c80634b833a47116100645780634b833a471461017657806376676c06146101ae578063beddf36e146101e2578063c56c4e3914610202578063c6f22e0814610222578063fec062ff1461024257600080fd5b806309c86272146100a157806310f01d18146100cc57806324d95990146100ee578063271337ec1461011b57806333ac262714610161575b600080fd5b3480156100ad57600080fd5b506100b6610257565b6040516100c39190611343565b60405180910390f35b3480156100d857600080fd5b506100e161056d565b6040516100c39190611422565b3480156100fa57600080fd5b5061010e610109366004611488565b610766565b6040516100c391906114a1565b34801561012757600080fd5b506101536101363660046114ee565b600260209081526000928352604080842090915290825290205481565b6040519081526020016100c3565b61017461016f366004611488565b6108ee565b005b34801561018257600080fd5b50610196610191366004611488565b6109f8565b6040516001600160a01b0390911681526020016100c3565b3480156101ba57600080fd5b506101ce6101c9366004611488565b610a22565b6040516100c398979695949392919061152a565b3480156101ee57600080fd5b506101746101fd366004611640565b610c23565b34801561020e57600080fd5b5061017461021d366004611488565b610d60565b34801561022e57600080fd5b5061017461023d3660046116d0565b610e35565b34801561024e57600080fd5b506100b6610f29565b6001546060906102a75760405162461bcd60e51b81526020600482015260166024820152754e6f20436f6d706169676e7320417661696c61626c6560501b60448201526064015b60405180910390fd5b60015460009067ffffffffffffffff8111156102c5576102c561159d565b6040519080825280602002602001820160405280156102fe57816020015b6102eb6112ad565b8152602001906001900390816102e35790505b50905060005b60015481101561056757600181815481106103215761032161173d565b90600052602060002090600702016040518061010001604052908160008201805461034b90611753565b80601f016020809104026020016040519081016040528092919081815260200182805461037790611753565b80156103c45780601f10610399576101008083540402835291602001916103c4565b820191906000526020600020905b8154815290600101906020018083116103a757829003601f168201915b505050505081526020016001820180546103dd90611753565b80601f016020809104026020016040519081016040528092919081815260200182805461040990611753565b80156104565780601f1061042b57610100808354040283529160200191610456565b820191906000526020600020905b81548152906001019060200180831161043957829003601f168201915b5050505050815260200160028201805461046f90611753565b80601f016020809104026020016040519081016040528092919081815260200182805461049b90611753565b80156104e85780601f106104bd576101008083540402835291602001916104e8565b820191906000526020600020905b8154815290600101906020018083116104cb57829003601f168201915b5050509183525050600382015460208201526004820154604082015260058201546001600160a01b0381166060830152600160a01b900460ff161515608082015260069091015460a09091015282518390839081106105495761054961173d565b6020026020010181905250808061055f9061179d565b915050610304565b50919050565b6105a160405180608001604052806060815260200160006001600160a01b0316815260200160608152602001600081525090565b336000818152602081905260409020600101546001600160a01b0316146106035760405162461bcd60e51b81526020600482015260166024820152751058d8dbdd5b9d08111bd95cc8139bdd08115e1a5cdd60521b604482015260640161029e565b336000908152602081905260409081902081516080810190925280548290829061062c90611753565b80601f016020809104026020016040519081016040528092919081815260200182805461065890611753565b80156106a55780601f1061067a576101008083540402835291602001916106a5565b820191906000526020600020905b81548152906001019060200180831161068857829003601f168201915b505050918352505060018201546001600160a01b031660208201526002820180546040909201916106d590611753565b80601f016020809104026020016040519081016040528092919081815260200182805461070190611753565b801561074e5780601f106107235761010080835404028352916020019161074e565b820191906000526020600020905b81548152906001019060200180831161073157829003601f168201915b50505050508152602001600382015481525050905090565b606060006001838154811061077d5761077d61173d565b90600052602060002090600702016006015467ffffffffffffffff8111156107a7576107a761159d565b6040519080825280602002602001820160405280156107d0578160200160208202803683370190505b50905060005b600184815481106107e9576107e961173d565b9060005260206000209060070201600601548110156108e75760005b6003548110156108d457600085815260026020526040812060038054839190859081106108345761083461173d565b60009182526020808320909101546001600160a01b03168352820192909252604001902054106108c257600382815481106108715761087161173d565b9060005260206000200160009054906101000a90046001600160a01b03168383815181106108a1576108a161173d565b60200260200101906001600160a01b031690816001600160a01b0316815250505b806108cc8161179d565b915050610805565b50806108df8161179d565b9150506107d6565b5092915050565b336108f761056d565b602001516001600160a01b0316146109215760405162461bcd60e51b815260040161029e906117b6565b60008181526002602090815260408083203384529091529020349081905560018054839081106109535761095361173d565b9060005260206000209060070201600401600082825461097391906117f9565b92505081905550600180828154811061098e5761098e61173d565b906000526020600020906007020160060160008282546109ae91906117f9565b9091555050600380546001810182556000919091527fc2575a0e9e593c00f959f8c92f12db2869c3395a3b0502d05e2516446f71f85b0180546001600160a01b0319163317905550565b60038181548110610a0857600080fd5b6000918252602090912001546001600160a01b0316905081565b60018181548110610a3257600080fd5b9060005260206000209060070201600091509050806000018054610a5590611753565b80601f0160208091040260200160405190810160405280929190818152602001828054610a8190611753565b8015610ace5780601f10610aa357610100808354040283529160200191610ace565b820191906000526020600020905b815481529060010190602001808311610ab157829003601f168201915b505050505090806001018054610ae390611753565b80601f0160208091040260200160405190810160405280929190818152602001828054610b0f90611753565b8015610b5c5780601f10610b3157610100808354040283529160200191610b5c565b820191906000526020600020905b815481529060010190602001808311610b3f57829003601f168201915b505050505090806002018054610b7190611753565b80601f0160208091040260200160405190810160405280929190818152602001828054610b9d90611753565b8015610bea5780601f10610bbf57610100808354040283529160200191610bea565b820191906000526020600020905b815481529060010190602001808311610bcd57829003601f168201915b50505050600383015460048401546005850154600690950154939491939092506001600160a01b03821691600160a01b900460ff169088565b33610c2c61056d565b602001516001600160a01b031614610c565760405162461bcd60e51b815260040161029e906117b6565b604080516101008101825285815260208101859052908101839052606081018290526000608082018190523360a0830152600160c0830181905260e08301829052805480820182559152815160079091027fb10e2d527612073b26eecdfd717e6a320cf44b4afac2b0732d9fcbe2b7fa0cf601908190610cd69082611861565b5060208201516001820190610ceb9082611861565b5060408201516002820190610d009082611861565b50606082015160038201556080820151600482015560a082015160058201805460c08501511515600160a01b026001600160a81b03199091166001600160a01b039093169290921791909117905560e09091015160069091015550505050565b60018181548110610d7357610d7361173d565b906000526020600020906007020160050160009054906101000a90046001600160a01b03166001600160a01b03166108fc60018381548110610db757610db761173d565b9060005260206000209060070201600401549081150290604051600060405180830381858888f19350505050158015610df4573d6000803e3d6000fd5b50600060018281548110610e0a57610e0a61173d565b906000526020600020906007020160050160146101000a81548160ff02191690831515021790555050565b336000818152602081905260409020600101546001600160a01b031603610e9e5760405162461bcd60e51b815260206004820152601760248201527f4163636f756e7420416c72656164792045786973746564000000000000000000604482015260640161029e565b604080516080810182528481523360208083018290528284018690526060830185905260009182528190529190912081518190610edb9082611861565b5060208201516001820180546001600160a01b0319166001600160a01b0390921691909117905560408201516002820190610f169082611861565b5060608201518160030155905050505050565b60606000805b600154811015610f9857336001600160a01b031660018281548110610f5657610f5661173d565b60009182526020909120600560079092020101546001600160a01b031603610f865781610f828161179d565b9250505b80610f908161179d565b915050610f2f565b5060008167ffffffffffffffff811115610fb457610fb461159d565b604051908082528060200260200182016040528015610fed57816020015b610fda6112ad565b815260200190600190039081610fd25790505b5090506000805b6001548110156112a457336001600160a01b03166001828154811061101b5761101b61173d565b60009182526020909120600560079092020101546001600160a01b03160361129257600181815481106110505761105061173d565b90600052602060002090600702016040518061010001604052908160008201805461107a90611753565b80601f01602080910402602001604051908101604052809291908181526020018280546110a690611753565b80156110f35780601f106110c8576101008083540402835291602001916110f3565b820191906000526020600020905b8154815290600101906020018083116110d657829003601f168201915b5050505050815260200160018201805461110c90611753565b80601f016020809104026020016040519081016040528092919081815260200182805461113890611753565b80156111855780601f1061115a57610100808354040283529160200191611185565b820191906000526020600020905b81548152906001019060200180831161116857829003601f168201915b5050505050815260200160028201805461119e90611753565b80601f01602080910402602001604051908101604052809291908181526020018280546111ca90611753565b80156112175780601f106111ec57610100808354040283529160200191611217565b820191906000526020600020905b8154815290600101906020018083116111fa57829003601f168201915b5050509183525050600382015460208201526004820154604082015260058201546001600160a01b0381166060830152600160a01b900460ff161515608082015260069091015460a09091015283518490849081106112785761127861173d565b6020026020010181905250818061128e9061179d565b9250505b8061129c8161179d565b915050610ff4565b50909392505050565b604051806101000160405280606081526020016060815260200160608152602001600081526020016000815260200160006001600160a01b03168152602001600015158152602001600081525090565b6000815180845260005b8181101561132357602081850181015186830182015201611307565b506000602082860101526020601f19601f83011685010191505092915050565b60006020808301818452808551808352604092508286019150828160051b87010184880160005b8381101561141457603f1989840301855281516101008151818652611391828701826112fd565b915050888201518582038a8701526113a982826112fd565b91505087820151858203898701526113c182826112fd565b606084810151908801526080808501519088015260a0808501516001600160a01b03169088015260c08085015115159088015260e09384015193909601929092525050938601939086019060010161136a565b509098975050505050505050565b60208152600082516080602084015261143e60a08401826112fd565b60208501516001600160a01b0316604085810191909152850151848203601f1901606086015290915061147182826112fd565b915050606084015160808401528091505092915050565b60006020828403121561149a57600080fd5b5035919050565b6020808252825182820181905260009190848201906040850190845b818110156114e25783516001600160a01b0316835292840192918401916001016114bd565b50909695505050505050565b6000806040838503121561150157600080fd5b8235915060208301356001600160a01b038116811461151f57600080fd5b809150509250929050565b600061010080835261153e8184018c6112fd565b90508281036020840152611552818b6112fd565b90508281036040840152611566818a6112fd565b6060840198909852505060808101949094526001600160a01b039290921660a0840152151560c083015260e0909101529392505050565b634e487b7160e01b600052604160045260246000fd5b600082601f8301126115c457600080fd5b813567ffffffffffffffff808211156115df576115df61159d565b604051601f8301601f19908116603f011681019082821181831017156116075761160761159d565b8160405283815286602085880101111561162057600080fd5b836020870160208301376000602085830101528094505050505092915050565b6000806000806080858703121561165657600080fd5b843567ffffffffffffffff8082111561166e57600080fd5b61167a888389016115b3565b9550602087013591508082111561169057600080fd5b61169c888389016115b3565b945060408701359150808211156116b257600080fd5b506116bf878288016115b3565b949793965093946060013593505050565b6000806000606084860312156116e557600080fd5b833567ffffffffffffffff808211156116fd57600080fd5b611709878388016115b3565b9450602086013591508082111561171f57600080fd5b5061172c868287016115b3565b925050604084013590509250925092565b634e487b7160e01b600052603260045260246000fd5b600181811c9082168061176757607f821691505b60208210810361056757634e487b7160e01b600052602260045260246000fd5b634e487b7160e01b600052601160045260246000fd5b6000600182016117af576117af611787565b5060010190565b60208082526023908201527f596f75204e656564204163636f756e7420746f2043726561746520436f6d706160408201526234b3b760e91b606082015260800190565b8082018082111561180c5761180c611787565b92915050565b601f82111561185c57600081815260208120601f850160051c810160208610156118395750805b601f850160051c820191505b8181101561185857828155600101611845565b5050505b505050565b815167ffffffffffffffff81111561187b5761187b61159d565b61188f816118898454611753565b84611812565b602080601f8311600181146118c457600084156118ac5750858301515b600019600386901b1c1916600185901b178555611858565b600085815260208120601f198616915b828110156118f3578886015182559484019460019091019084016118d4565b50858210156119115787850151600019600388901b60f8161c191681555b5050505050600190811b0190555056fea26469706673582212205c6e576cc3cb45d0e263ba27c712c6a055af2da8a647ac71936d5b2c7d2dd1d664736f6c63430008110033",
  "linkReferences": {},
  "deployedLinkReferences": {}
}